:02121200117752
:02121400113D8A
:02121600115A6B
:100A7E000A2A3D3D3D3D3D3D3D3D3D3D3D3D3D3DDE
:100A8E003D3D3D3D3D3D3D3D3D3D3D3D3D3D3D3D88
:100A9E003D3D3D3D3D3D3D3D3D3D3D3D3D3D3D3D78
:100AAE003D3D3D3D3D3D3D3D3D3D3D3D3D3D3D3D68
:100ABE003D3D3D3D3D000A2A20204E616D653A20A8
:100ACE004E3736453838352064656D6F2E63206994
:100ADE006E2055415254302044656D6F20436F6433
:100AEE00652E000A2A3D3D3D3D3D3D3D3D3D3D3D92
:100AFE003D3D3D3D3D3D3D3D3D3D3D3D3D3D3D3D18
:100B0E003D3D3D3D3D3D3D3D3D3D3D3D3D3D3D3D07
:100B1E003D3D3D3D3D3D3D3D3D3D3D3D3D3D3D3DF7
:100B2E003D3D3D3D3D3D3D3D0A005441534B20234F
:050B3E002025640A00FF
:100FF7001211D97F807E257D007C0012104F120DC3
:10100700847BFF7A0A797E1200707BFF7A0A79C4A3
:0C1017001200707BFF7A0A79F102007071
:10117700120FF77B017D01E4FF1210237F01120498
:0B118700E77F021204E7E4FF0205709E
:10113D00E4FF1211C51205F97525008F267BFF7A84
:0D114D000B7938120070E4FF1211AC80E342
:10115A00E4FF1211C51205F97525008F267BFF7A67
:0D116A000B7938120070E4FF1211AC80E325
:10082900EF1460431470030208EC147003020928E2
:1008390014606124046003020966A2AF920BC2AF7F
:1008490075C7AA75C755439780A20B92AFA2AF92FD
:100859000BC2AF75C7AA75C7555397BFA20B92AF05
:10086900E59630E7FB8058A2AF920BC2AF75C7AAD5
:1008790075C75553977FA20B92AFA2AF920BC2AF28
:1008890075C7AA75C755439740A20B92AFE5963035
:10089900E6FB802BA2AF920BC2AF75C7AA75C755ED
:1008A90053977FA20B92AFA2AF920BC2AF75C7AAA3
:1008B90075C7555397BFA20B92AFE59630E3FBA2DC
:1008C900AF920BC2AF75C7AA75C7555396FBA20B5A
:1008D90092AFA2AF920BC2AF75C7AA75C75543961F
:1008E900028076A2AF920BC2AF75C7AA75C75543EE
:1008F9009720A20B92AFE59630E5FBA2AF920BC20F
:10090900AF75C7AA75C7555396FBA20B92AFA2AF95
:10091900920BC2AF75C7AA75C7555396FD803AA207
:10092900AF920BC2AF75C7AA75C755439710A20BF3
:1009390092AFE59630E4FBA2AF920BC2AF75C7AA9E
:1009490075C755439604A20B92AFA2AF920BC2AFE3
:1009590075C7AA75C7555396FDA20B92AFE59720A7
:03096900E0FB228E
:1010CD0075985243892053877F538EEF53C4DFABFE
:1010DD0007AA06A905A804E4FF7EE1FDFC1206A7F8
:0810ED00EFF404F58DD28E2210
:10104F00759852438920438780538EEF53C4DFAB8B
:10105F0007AA06A905A8047F007EC27D017C0012A5
:0A106F0006A7EFF404F58DD28E22DF
:1010790075985243892053877F438E1053C4DFAB41
:1010890007AA06A905A8047F007E8C7D0A7C0012A8
:0A10990006A7EFF404F58DD28E22B5
:1010A300759852438920438780438E1053C4DFAB26
:1010B30007AA06A905A8047F007E187D157C0012E7
:0A10C30006A7EFF404F58DD28E228B
:100CD2008F1D8E1C8D1B8C1A75985253877F53C49F
:100CE200F843C420AB1DAA1CA91BA81A7F007E8C46
:100CF2007D0A7C001206A7C3E49FFFE49EFE7401F6
:100D02009DFDE49CFC780812074A8FC6AB1DAA1C05
:100D1200A91BA81A7F007E8C7D0A7C001206A7C33D
:090D2200E49FFF8FC543C40822C1
:100D2B008F398E388D378C3675985243878053C4E4
:100D3B00F843C420AB39AA38A937A8367F007E18F0
:100D4B007D157C001206A7C3E49FFFE49EFE740191
:100D5B009DFDE49CFC780812074A8FC6AB39AA3874
:100D6B00A937A8367F007E187D157C001206A7C315
:090D7B00E49FFF8FC543C4082268
:100DDB008F3D8E3C8D3B8C3A75F85253C4F8AB3D2E
:100DEB00AA3CA93BA83A7F007E187D157C00120611
:100DFB00A7C3E49FFFE49EFE74019DFDE49CFC7879
:100E0B000812074A8FC6AB3DAA3CA93BA83A7F0004
:100E1B007E187D157C001206A7C3E49FFF8FC54388
:030E2B00C40822D6
:070003003098FDAF99C2988F
:01000A0022D3
:0811FA00C2998F993099FD2282
:0712020030F8FDAF9AC2F8BD
:0112090022C2
:08120A00C2F98F9A30F9FD22B0
:1011D900E4F5B1F5B2F5B3F5B4F5B5F5B6F5ACF599
:0211E900AD2235
:1011920075C7AA75C755A2AF920BC2AF75C7AA751C
:0A11A200C755439F80A20B92AF22B5
:0412180043B40822B1
:060C7500E51E24F8F51E47
:100C7B00F812078200000000E47FFF7EFFFDFCA856
:100C8B001E120769C31207395036E51E2404F812E9
:100C9B00075DEF2401FFE43EFEE43DFDE43CFCE593
:100CAB001E2404F8120776A81E12075DEF2401FF1D
:100CBB00E43EFEE43DFDE43CFCA81E12077680B842
:070CCB00E51E2408F51E22BE
:10111C00538EF7438901D28CEF4E6012758AEE75AF
:10112C008CFF308DFDC28DEF1F70ED1E80EAC28CDE
:01113C002290
:100F1C008F418E408D3F8C3E538EF7438901D28C8E
:100F2C00E4FFFEFDFCAB41AA40A93FA83EC312075B
:100F3C00396025758ACD758CF8308DFDC28DE541F3
:100F4C0024FFF541E54034FFF540E53F34FFF53F24
:0B0F5C00E53E34FFF53E80C8C28C2249
:100F67008F458E448D438C42538EEF438910D28E2A
:100F7700E4FFFEFDFCAB45AA44A943A842C3120700
:100F8700396025758BCD758DF8308FFDC28FE5459E
:100F970024FFF545E54434FFF544E54334FFF543C5
:0B0FA700E54234FFF54280C8C28E22F4
:100E81008F498E488D478C4653C9BF53C9DF43C92B
:100E910010D2CAE4FFFEFDFCAB49AA48A947A84607
:100EA100C3120739602575CC6675CDEA30CFFDC216
:100EB100CFE54924FFF549E54834FFF548E54734D6
:0E0EC100FFF547E54634FFF54680C8C2CA2259
:100ECF008F4D8E4C8D4B8C4A75C40243C408E4FF82
:100EDF00FEFDFCAB4DAA4CA94BA84AC312073960C3
:100EEF002875C56675C6EAE5C430E4FB53C4EFE563
:100EFF004D24FFF54DE54C34FFF54CE54B34FFF534
:0D0F0F004BE54A34FFF54A80C553C4F72274
:100E2E008F518E508D4F8C4E538FFB538FFD538FA2
:100E3E00FEE4F586538FDF438F08E4FFFEFDFCAB27
:100E4E0051AA50A94FA84EC31207396022E58F3020
:100E5E00E4FB538FEFE55124FFF551E55034FFF5D8
:100E6E0050E54F34FFF54FE54E34FFF54E80CB5332
:030E7E008FF722C9
:10096C000A3D3D3D3D3D3D3D3D3D3D3D3D3D3D3DDE
:10097C003D3D3D3D3D3D3D3D3D3D3D3D3D3D3D3D9B
:10098C003D3D3D3D3D3D3D3D3D3D3D3D3D3D3D3D8B
:10099C003D3D3D3D3D3D3D3D3D3D3D3D3D3D3D3D7B
:1009AC003D3D3D3D3D000A2A2020436F7079726920
:1009BC006768742863292032303135204E75766F84
:1009CC00746F6E20546563686E6F6C6F677920432B
:1009DC006F72702E20416C6C207269676874732082
:1009EC0072657365727665642E2020000A2A2020B9
:1009FC00436F6E7461637420452D4D61696C3A20B0
:100A0C004D6963726F432D38626974406E75766FF1
:100A1C00746F6E2E636F6D202020202020202020EC
:100A2C0020202020202020202020202020202020BA
:100A3C0020000A2A202044656D6F20566572736968
:100A4C006F6E20203A202532642E2532642E2532FA
:100A5C0064000A2A202046696E6973686564204424
:100A6C00617465203A202532642E2532642E25329D
:020A7C00640014
:100D84007BFF7A09796C1200707BFF7A0979B212C1
:100D940000707BFF7A0979F81200707BFF7A0A7978
:100DA4003E752500752601E4F527F528F529F52A71
:100DB4001200707BFF7A0A795E7525077526DF7548
:100DC4002700752805752900752A011200707BFF1C
:070DD4007A09796C0200703E
:0E11EB000C0E000000000000000000000000DC
:10102300D310AF01C3C0D0EF25E025E0240EF8A60E
:1010330005EF25E025E0240FF8A603EF25E025E0E2
:0C1043002410F8E4F608F6D0D092AF229A
:100FB200D310AF01C3C0D08F22EF25E025E0240F6C
:100FC200F8E6D394004005167FFF80241205F974D9
:100FD200017E00A807088005C333CE33CED8F9FFBF
:100FE200E52225E025E02410F8A60608A6077F00E2
:050FF200D0D092AF22F7
:1011C500120FB2EF700DE4FBFA7DFF7F0212060CE1
:0411D500BF80F322C2
:090B4300D310AF01C3C0D0AD070F
:100B4C00E47B01FAED25E025E0240FF8E6D39400D0
:100B5C00500FED25E025E02410F8E6FE08E64E7077
:100B6C002EED25E025E0240FF806ED25E025E02408
:100B7C000EF8E6FFED25E025E0240FF8E6D39F40C4
:100B8C000AED25E025E0240FF8A6077FFF8049E455
:100B9C00FCED25E025E02410F8E6F58308E6F58267
:100BAC00E5835AFEE5825B4E602174017E00A80449
:100BBC00088005C333CE33CED8F9F4FFEEF4558359
:100BCC00FEEF55824E6004AF04800DEB25E0FBEA8E
:080BDC0033FA0CBC10BB7F00D2
:050BE400D0D092AF2209
:0211AC00AE078C
:1011AE00AF06120B43EFFD3395E0FCEDF44C6006F9
:0611BE001205FC1203E61D
:0111C4002208
:03000B0002036F7E
:10036A00C2AF80FE3212036E85D00B75D008FAC276
:10037A008CE58A24F7F58AE58C34D8F58CD28CEC96
:10038A002459F8E6BC020274FFC39581B4140040F4
:10039A00CF7903785216E608700BC2AFE630E10354
:1003AA004418F6D2AF08D9EDEA8BD0300903D20A45
:1003BA0022D50DFAC0E0C0D0C0F0C083C082C00010
:1003CA00C001C002C003C004C005C006C007E50CD6
:1003DA00232453F87440C2AF46F6D2AFD209E50CD3
:1003EA00FF232453F80F0808EFB50C06100A03433D
:1003FA008701BF03047F007853E630E4E800E50C88
:10040A00C39F5020050C7458250CF8E6FDA68108F8
:10041A00E6AE0CBE020274FFCDF8E86D60E008E6B5
:10042A00C0E080F6E50CD39F4027E50C2459F8E696
:10043A00AE0CBE020274FFFD18E6CDF8E5816D60D0
:10044A0006D0E0F61880F5E50C2458C8F6150C809D
:10045A00D3750D05E50C232453F87F04C2AFE610CB
:02046A00E61E8C
:10046C0030E00310E20C7F0030E10730E3047F083A
:10047C0054F4C2E7C6D2AF54804207C20922F6D266
:10048C00AFD007D006D005D004D003D002D001D015
:10049C0000D082D083D0F0D0D0D0E0C209227858DE
:1004AC00A68174026006FF0876FFDFFB7F03E47809
:1004BC0052F608F608DFFA7853763090121274016F
:1004CC0093C0E0E493C0E0750D05438901758AF093
:0B04DC00758CD8D28CD2AFD2A92202BE
:03000000020BE907
:0C0BE900787FE4F6D8FD75815A020C30CC
:1004E700EFD3940240037FFF2274532F2FF8E620A7
:1004F700E5F4C2AFE64430F6D2AFAE0CEEC39F5080
:10050700210E74582EF8E6F908E618BE020274FFA9
:10051700FDED69600909E71919F7090980F316164E
:1005270080DAEED39F400405810581EED39F4022F8
:1005370074582EF808E6F9EEB50C02A981180606DC
:10054700E6FDED6960091919E70909F71980F31E36
:1005570080D9EF2458F8E604F8EF2F04901212938D
:09056700F608EF2F93F67F002245
:10057000EFD3940240037FFF22EF232453F8E630A9
:10058000E5F4C2AFE6548CF6D2AFE50CB5070A74B9
:10059000582FF8E6F5810203E6502E74592FF8E63D
:1005A000BF020274FFFD18E6F974582FF8FBE6FC51
:1005B000E96C6008A805E7F61D1980F4A803A605F4
:1005C0001FE50CB507E37F002274592FF8E6FD18EC
:1005D00086010F74582FF8A601088604E50CB507AC
:1005E00002AC81ED6C60080D09A805E6F780F4E522
:0905F0000CB507DE89817F0022B1
:0305F900AF0C2222
:1005FC00EF232453F8C2AFE64490F6D2AF0203B80F
:10060C008FF0E4FFFEE50C232452F8C2A930F70D5D
:10061C007F08E6600B2DF660325030800730F10613
:10062C00EDF660277E020830F010C2AFE610E72529
:10063C000E30E20CD2AF7F048014C2AFE610E71587
:10064C0054EC4EF6D2AFD2A90203E67F0808EF4471
:0F065C0083F4C2AF56C6D2AFD2A954804FFF224B
:100BF5000204AAE493A3F8E493A34003F68001F268
:100C050008DFF48029E493A3F85407240CC8C33300
:100C1500C4540F4420C8834004F456800146F6DFCF
:100C2500E4800B01020408102040809011EBE47E63
:100C3500019360BCA3FF543F30E509541FFEE493C4
:100C4500A360010ECF54C025E060A840B8E493A38B
:100C5500FAE493A3F8E493A3C8C582C8CAC583CAB6
:100C6500F0A3C8C582C8CAC583CADFE9DEE780BE6E
:0111F90000F5
:10066B0075F008758200EF2FFFEE33FECD33CDCC46
:10067B0033CCC58233C5829BED9AEC99E5829840C9
:10068B000CF582EE9BFEED9AFDEC99FC0FD5F0D6A6
:10069B00E4CEFBE4CDFAE4CCF9A88222B800C1B9D0
:1006AB000059BA002DEC8BF084CFCECDFCE5F0CB0E
:1006BB00F97818EF2FFFEE33FEED33FDEC33FCEB47
:1006CB0033FB10D703994004EB99FB0FD8E5E4F902
:1006DB00FA227818EF2FFFEE33FEED33FDEC33FCEF
:1006EB00C933C910D7059BE99A4007EC9BFCE99AE3
:1006FB00F90FD8E0E4C9FAE4CCFB2275F010EF2F28
:10070B00FFEE33FEED33FDCC33CCC833C810D70727
:10071B009BEC9AE899400AED9BFDEC9AFCE899F862
:0E072B000FD5F0DAE4CDFBE4CCFAE4C8F922F5
:10073900EB9FF5F0EA9E42F0E99D42F0E89C45F016
:01074900228D
:10074A00E8600FECC313FCED13FDEE13FEEF13FF8D
:03075A00D8F122B1
:0C075D00E6FC08E6FD08E6FE08E6FF22C8
:0D076900E6FB08E6F908E6FA08E6CBF82200
:0C077600ECF608EDF608EEF608EFF622AF
:10078200D083D082E493F608740193F6087402933E
:09079200F608740393F674047375
:10000E00E5312425F8E605312278223007027825DD
:10001E00E475F0011207F302079B2000EB7F2ED24E
:10002E00008018EF540F2490D43440D4FF30040BCA
:10003E00EF24BFB41A0050032461FFE532600215AD
:10004E00320535E5357002053430070D7822E4753A
:10005E00F0011207F3EF0207E10210F57403D20765
:10006E008003E4C207F5318B228A238924E4F5321A
:10007E00F534F535E53260077F2012004980F575BD
:10008E0033FFC201C200C202C203C205C206C208C9
:10009E00120017FF700D3007057F0012005AAF35A2
:1000AE00AE3422B4255FC2D5C204120017FF24D08D
:1000BE00B40A00501A75F00A783230D50508B6FF2A
:1000CE000106C6A426F620D5047002D20380D924D8
:1000DE00CFB41A00EF5004C2E5D20402025AD20184
:1000EE0080C6D20080C0D20280BCD2D580BAD205E2
:1000FE0080B47F201200492002077401B5320040FF
:10010E00F112000EFF120049020082D208D20680C0
:10011E009512000EFB12000EFA12000EF94A4B70E9
:10012E0006792B7A037BFF20022EE532602A7E00B1
:10013E008E827583001207B460060EEE653370F082
:10014E00C2D5EBC0E0EAC0E0E9C0E0EE1202A1D0F9
:10015E00E0F9D0E0FAD0E0FB12079BFF60AAEBC0FB
:10016E00E0EAC0E0E9C0E0120049D0E02401F9D095
:10017E00E03400FAD0E0FBE5330460DCD533D980FF
:10018E00877BFF7A02799DD202809C79108002795A
:10019E0008C206C2088008D2D5790A8004790AC23C
:1001AE00D5E533047002F533E4FAFDFEFF12000EBE
:1001BE00FC7B0820011312000EFD7B1030000A128A
:1001CE00000EFE12000EFF7B20EC3382D592D5502E
:1001DE0013C3E43000069FFFE49EFEE42001039D5E
:1001EE00FDE49CFCE4CBF8C201EC700CCFCECDCC80
:1001FE00E824F8F870F38017C3EF33FFEE33FEED0B
:10020E0033FDEC33FCEB33FB994002FB0FD8E9EBEB
:10021E00300105F8D0E0C448B201C0E00AEC4D4E02
:10022E004F78207B0070C2EAB5330040BCC0E012AC
:10023E0002A3D0F0D0E0200104C4C0E0C4B201C0DB
:10024E00F0120032D0F0D5F0EB020082120803015A
:10025E001F5301995800F04C00EC42019D4F01A52F
:0F026E004401A54901054301AB55018F46018F9E
:10027D0045018F47034B5000F42D00F82E011B2B29
:10028D0000FC2301192003342A00B4480000011397
:10029D003F3F3F00790AA2D5200314300509B9105C
:1002AD00020404B9080104A2D5200602500104205D
:1002BD0002689202B532005034C0E07F203003193D
:1002CD007F30A20272067205500F1202FAC202C2EC
:1002DD0006C205C2087F30800F300503E9C0E01269
:1002ED000049300503D0E0F9D0E0B532CC30051728
:1002FD007F30B9100C1200497F583004077F788089
:10030D0003B908031200493002057F2D0200497F11
:10031D00202008F87F2B2006F322920280CF286E32
:10032D00756C6C2900D20112000E3001F8C20178F3
:10033D003230D50108F60200B42D50434958120051
:10034D000E2403B405004001E49003469312003AD5
:0D035D00743A12003AD2037532040201997D
:10079B00BB010689828A83E0225002E722BBFE025C
:0907AB00E32289828A83E493228F
:1007B400BB010CE58229F582E5833AF583E02250FA
:1007C40006E92582F8E622BBFE06E92582F8E22244
:0D07D400E58229F582E5833AF583E493225E
:1007E100BB010689828A83F0225002F722BBFE01F7
:0207F100F322F1
:1007F300FAE6FB0808E6F925F0F618E6CA3AF62207
:10080300D083D082F8E4937012740193700DA3A384
:1008130093F8740193F5828883E473740293686098
:06082300EFA3A3A380DF98
:1010F500EFB40A07740D121100740A309811A899FB
:10110500B8130CC2983098FDA899C298B811F6305A
:0711150099FDC299F5992232
:00000001FF
