:021497001396AA
:02149900135CE2
:02149B001379C3
:0B1474005441534B20232025640A0044
:101446001214347F807E257D007C001211F1020E7D
:011456002174
:101396001214467B017D01E4FF1211C57F01120480
:0B13A600E77F021204E7E4FF0205707D
:10135C00E4FF1213FA1205F97525008F267BFF7A2C
:0D136C00147974120070E4FF1213CB80E3BB
:10137900E4FF1213FA1205F97525008F267BFF7A0F
:0D138900147974120070E4FF1213CB80E39E
:03000000020C24CB
:0C0C2400787FE4F6D8FD75816A020C6B45
:060D1200E51E24F8F51EA9
:100D1800F812079B00000000E47FFF7EFFFDFCA89F
:100D28001E120782C31207525036E51E2404F81219
:100D38000776EF2401FFE43EFEE43DFDE43CFCE5DC
:100D48001E2404F812078FA81E120776EF2401FF4D
:100D5800E43EFEE43DFDE43CFCA81E12078F80B88B
:070D6800E51E2408F51E2220
:101054008F1D8E1C8D1B8C1A538EF7438901D28CE5
:10106400E4FFFEFDFCAB1DAA1CA91BA81AC31207B2
:10107400526025758AEE758CFF308DFDC28DE51D9D
:1010840024FFF51DE51C34FFF51CE51B34FFF51B9F
:0B109400E51A34FFF51A80C8C28C2258
:10109F008F398E388D378C36538EEF438910D28E21
:1010AF00E4FFFEFDFCAB39AA38A937A836C31207F7
:1010BF00526025758BEE758DFF308FFDC28FE53930
:1010CF0024FFF539E53834FFF538E53734FFF537C8
:0B10DF00E53634FFF53680C8C28E22D3
:100F1E008F3D8E3C8D3B8C3A53C9BF53C9DF43C9BD
:100F2E0010D2CAE4FFFEFDFCAB3DAA3CA93BA83A99
:100F3E00C3120752602575CCC875CDFF30CFFDC2E8
:100F4E00CFE53D24FFF53DE53C34FFF53CE53B3474
:0E0F5E00FFF53BE53A34FFF53A80C8C2CA22DF
:100FBA008F418E408D3F8C3E75C40243C408E4FFC6
:100FCA00FEFDFCAB41AA40A93FA83EC312075260EE
:100FDA002875C5C875C6FFE5C430E4FB53C4EFE500
:100FEA004124FFF541E54034FFF540E53F34FFF584
:0D0FFA003FE53E34FFF53E80C553C4F722AD
:1010EA008F458E448D438C42538EF7438901D28CAF
:1010FA00E4FFFEFDFCAB45AA44A943A842C312077C
:10110A00526025758ACD758CF8308DFDC28DE54506
:10111A0024FFF545E54434FFF544E54334FFF54340
:0B112A00E54234FFF54280C8C28C2271
:101135008F498E488D478C46538EEF438910D28E4A
:10114500E4FFFEFDFCAB49AA48A947A846C3120720
:10115500526025758BCD758DF8308FFDC28FE549B1
:1011650024FFF549E54834FFF548E54734FFF547E1
:0B117500E54634FFF54680C8C28E221C
:100F6C008F4D8E4C8D4B8C4A53C9BF53C9DF43C92F
:100F7C0010D2CAE4FFFEFDFCAB4DAA4CA94BA84A0B
:100F8C00C3120752602575CC6675CDEA30CFFDC211
:100F9C00CFE54D24FFF54DE54C34FFF54CE54B34D6
:0E0FAC00FFF54BE54A34FFF54A80C8C2CA2261
:101007008F518E508D4F8C4E75C40243C408E4FF38
:10101700FEFDFCAB51AA50A94FA84EC31207526060
:101027002875C56675C6EAE5C430E4FB53C4EFE529
:101037005124FFF551E55034FFF550E54F34FFF5E6
:0D1047004FE54E34FFF54E80C553C4F7222F
:100E78008F558E548D538C52538FFB538FFD538F48
:100E8800FEE4F586538FDF438F08E4FFFEFDFCABDD
:100E980055AA54A953A852C31207526022E58F30AD
:100EA800E4FB538FEFE55524FFF555E55434FFF582
:100EB80054E55334FFF553E55234FFF55280CB53D4
:030EC8008FF7227F
:0E1457000C0E0000000000000000000000006D
:1011C500D310AF01C3C0D0EF25E025E0240EF8A66B
:1011D50005EF25E025E0240FF8A603EF25E025E03F
:0C11E5002410F8E4F608F6D0D092AF22F7
:10118000D310AF01C3C0D08F22EF25E025E0240F9C
:10119000F8E6D394004005167FFF80241205F97409
:1011A000017E00A807088005C333CE33CED8F9FFEF
:1011B000E52225E025E02410F8A60608A6077F0012
:0511C000D0D092AF2227
:1013FA00121180EF700DE4FBFA7DFF7F0212060CDA
:04140A00BF80F3228A
:090B7E00D310AF01C3C0D0AD07D4
:100B8700E47B01FAED25E025E0240FF8E6D3940095
:100B9700500FED25E025E02410F8E6FE08E64E703C
:100BA7002EED25E025E0240FF806ED25E025E024CD
:100BB7000EF8E6FFED25E025E0240FF8E6D39F4089
:100BC7000AED25E025E0240FF8A6077FFF8049E41A
:100BD700FCED25E025E02410F8E6F58308E6F5822C
:100BE700E5835AFEE5825B4E602174017E00A8040E
:100BF700088005C333CE33CED8F9F4FFEEF455831E
:100C0700FEEF55824E6004AF04800DEB25E0FBEA52
:080C170033FA0CBC10BB7F0096
:050C1F00D0D092AF22CD
:0213CB00AE076B
:1013CD00AF06120B7EEFFD3395E0FCEDF44C60069D
:0613DD001205FC1203E6FC
:0113E30022E7
:100829003D3D3D3D3D3D3D3D3D3D3D3D3D3D3D3DEF
:100839003D3D3D3D3D3D3D3D3D3D3D3D3D3D3D3DDF
:100849003D3D3D3D3D3D3D3D3D3D3D3D3D3D3D3DCF
:100859003D3D3D3D3D3D3D3D3D3D3D3D3D3D3D3DBF
:100869003D3D3D3D0D0A002A20202020436F70792F
:1008790072696768742863292032303136204D6FD8
:100889006C656920546563686E6F6C6F6779204386
:100899006F72702E20416C6C2072696768747320C6
:1008A90072657365727665642E20200D0A002A2010
:1008B900202020436F6E7461637420452D4D61695A
:1008C9006C3A206D746B6F77656E40686F746D61FB
:1008D900696C2E636F6D202020202020202020208D
:1008E90020202020202020202020202020202020FF
:1008F90020200D0A002A2020202046572056657204
:1009090073696F6E20203A202532642E2532642EB9
:100919002532640D0A002A2020202046696E697359
:100929006865642044617465203A202532642E2567
:1009390032642E2532640D0A003D3D3D3D3D3D3D6D
:100949003D3D3D3D3D3D3D3D3D3D3D3D3D3D3D3DCE
:100959003D3D3D3D3D3D3D3D3D3D3D3D3D3D3D3DBE
:100969003D3D3D3D3D3D3D3D3D3D3D3D3D3D3D3DAE
:0E0979003D3D3D3D3D3D3D3D3D3D3D3D3D0057
:100E21007BFF7A0879291200707BFF7A08797012AA
:100E310000707BFF7A0879B71200707BFF7A08791E
:100E4100FE752500752601E4F527F528F529F52A13
:100E51001200707BFF7A09791F7525077526E075E9
:100E61002700752809752900752A101200707BFF6B
:070E71007A097942020070CA
:0E146600EF700453E17F22BF010343E18022B7
:100ACA00EFB40A004003020B7A900ADAF828287376
:100ADA00020AF8020B05020B12020B1F020B2C0270
:100AEA000B39020B46020B53020B60020B6DE4F545
:100AFA00E843B10153B2FE43F6012275E80143B15E
:100B0A000253B2FD43F6022275E80243B10453B21E
:100B1A00FB43F6042275E80343B10853B2F743F6E0
:100B2A00082275E80443B11053B2EF43F610227558
:100B3A00E80543B12053B2DF43F6202275E80643A5
:100B4A00B14053B2BF43F6402275E80743B1805320
:100B5A00B27F43F6802275E80843B54053B6BF43D7
:100B6A00E2082275E80943B50153B6FE43E20422BE
:040B7A0043E80F221B
:100CB000EFB40900505B900CBDF8282873020CD8E3
:100CC000020CDD020CDF020CE4020CDD020CEE0271
:100CD0000CF6020CFE020D0853E1BF8014800A538B
:100CE000E1BF801D53E1BF802253E1BF800B43E190
:100CF0004053E1DF800E43E14053E1DF801043E1E8
:100D00004043E12053E1EF2243E14043E12043E14E
:020D10001022AF
:1013E400AE07AC0343E101AF06121466AF05120A5F
:0613F400CAAF04020CB0B8
:10098700EF146043147003020A4A147003020A86C4
:1009970014606124046003020AC4A2AF920BC2AFC1
:1009A70075C7AA75C755439780A20B92AFA2AF929E
:1009B7000BC2AF75C7AA75C7555397BFA20B92AFA6
:1009C700E59630E7FB8058A2AF920BC2AF75C7AA76
:1009D70075C75553977FA20B92AFA2AF920BC2AFC9
:1009E70075C7AA75C755439740A20B92AFE59630D6
:1009F700E6FB802BA2AF920BC2AF75C7AA75C7558E
:100A070053977FA20B92AFA2AF920BC2AF75C7AA43
:100A170075C7555397BFA20B92AFE59630E3FBA27C
:100A2700AF920BC2AF75C7AA75C7555396FBA20BFA
:100A370092AFA2AF920BC2AF75C7AA75C7554396BF
:100A4700028076A2AF920BC2AF75C7AA75C755438E
:100A57009720A20B92AFE59630E5FBA2AF920BC2AF
:100A6700AF75C7AA75C7555396FBA20B92AFA2AF36
:100A7700920BC2AF75C7AA75C7555396FD803AA2A8
:100A8700AF920BC2AF75C7AA75C755439710A20B94
:100A970092AFE59630E4FBA2AF920BC2AF75C7AA3F
:100AA70075C755439604A20B92AFA2AF920BC2AF84
:100AB70075C7AA75C7555396FDA20B92AFE5972048
:030AC700E0FB222F
:1013B10075C7AA75C755A2AF920BC2AF75C7AA75FB
:0A13C100C755439F80A20B92AF2294
:04149D0043B408222A
:1012C000EF14601014601214601624037018E4F513
:1012D000B1F5B222E4F5B1800A75B1FFE4F5B222AE
:0712E00075B1FF75B2FF229A
:1012E700EF14601014601214601624037018E4F5EC
:1012F700B3F5B422E4F5B3800A75B303E4F5B42279
:0713070075B30375B4032266
:10126F00EF1460101460141460182403701AE4F55E
:10127F00B5F5B622E4F5B575B6FF2275B57FE4F581
:09128F00B62275B57F75B67F2209
:10130E00EF14601014601214601624037018E4F5C4
:10131E00ACF5AD22E4F5AC800A75ACFFE4F5AD2278
:07132E0075ACFF75ADFF2255
:10143400E4F5B1F5B2F5B3F5B4F5B5F5B6F5ACF53B
:02144400AD22D7
:1012980075985243892053877F538EEF53C4DFAB31
:1012A80007AA06A905A804E4FF7EE1FDFC1206C012
:0812B800EFF404F58DD28E2243
:1011F100759852438920438780538EEF53C4DFABE8
:1012010007AA06A905A8047F007EC27D017C001201
:0A12110006C0EFF404F58DD28E2222
:10121B0075985243892053877F438E1053C4DFAB9D
:10122B0007AA06A905A8047F007E8C7D0A7C001204
:0A123B0006C0EFF404F58DD28E22F8
:10124500759852438920438780438E1053C4DFAB82
:1012550007AA06A905A8047F007E187D157C001243
:0A12650006C0EFF404F58DD28E22CE
:100D6F008F598E588D578C5675985253877F53C411
:100D7F00F843C420AB59AA58A957A8567F007E8CB8
:100D8F007D0A7C001206C0C3E49FFFE49EFE74013F
:100D9F009DFDE49CFC78081207638FC6AB59AA58D7
:100DAF00A957A8567F007E8C7D0A7C001206C0C30F
:090DBF00E49FFF8FC543C4082224
:100DC8008F5D8E5C8D5B8C5A75985243878053C4B7
:100DD800F843C420AB5DAA5CA95BA85A7F007E18C3
:100DE8007D157C001206C0C3E49FFFE49EFE7401DB
:100DF8009DFDE49CFC78081207638FC6AB5DAA5C76
:100E0800A95BA85A7F007E187D157C001206C0C316
:090E1800E49FFF8FC543C40822CA
:100ECB008F618E608D5F8C5E75F85253C4F8AB6189
:100EDB00AA60A95FA85E7F007E187D157C001206B4
:100EEB00C0C3E49FFFE49EFE74019DFDE49CFC786F
:100EFB00081207638FC6AB61AA60A95FA85E7F006B
:100F0B007E187D157C001206C0C3E49FFF8FC5437E
:030F1B00C40822E5
:070003003098FDAF99C2988F
:01000A0022D3
:08147F00C2998F993099FD22FA
:10140E0012066BFF600C12147F740129F9E43AFA8C
:03141E0080EE223B
:0714870030F8FDAF9AC2F836
:01148E00223B
:08148F00C2F98F9A30F9FD2229
:1014210012066BFF600C12148F740129F9E43AFA69
:0314310080EE2228
:03000B0002036F7E
:10036A00C2AF80FE3212036E85D00B75D008FAC276
:10037A008CE58A24F7F58AE58C34D8F58CD28CEC96
:10038A002469F8E6BC020274FFC39581B4140040E4
:10039A00CF7903786216E608700BC2AFE630E10344
:1003AA004418F6D2AF08D9EDEA8BD0300903D20A45
:1003BA0022D50DFAC0E0C0D0C0F0C083C082C00010
:1003CA00C001C002C003C004C005C006C007E50CD6
:1003DA00232463F87440C2AF46F6D2AFD209E50CC3
:1003EA00FF232463F80F0808EFB50C06100A03432D
:1003FA008701BF03047F007863E630E4E800E50C78
:10040A00C39F5020050C7468250CF8E6FDA68108E8
:10041A00E6AE0CBE020274FFCDF8E86D60E008E6B5
:10042A00C0E080F6E50CD39F4027E50C2469F8E686
:10043A00AE0CBE020274FFFD18E6CDF8E5816D60D0
:10044A0006D0E0F61880F5E50C2468C8F6150C808D
:10045A00D3750D05E50C232463F87F04C2AFE610BB
:02046A00E61E8C
:10046C0030E00310E20C7F0030E10730E3047F083A
:10047C0054F4C2E7C6D2AF54804207C20922F6D266
:10048C00AFD007D006D005D004D003D002D001D015
:10049C0000D082D083D0F0D0D0D0E0C209227868CE
:1004AC00A68174026006FF0876FFDFFB7F03E47809
:1004BC0062F608F608DFFA786376309014977401C8
:1004CC0093C0E0E493C0E0750D05438901758AF093
:0B04DC00758CD8D28CD2AFD2A92202BE
:1004E700EFD3940240037FFF2274632F2FF8E62097
:1004F700E5F4C2AFE64430F6D2AFAE0CEEC39F5080
:10050700210E74682EF8E6F908E618BE020274FF99
:10051700FDED69600909E71919F7090980F316164E
:1005270080DAEED39F400405810581EED39F4022F8
:1005370074682EF808E6F9EEB50C02A981180606CC
:10054700E6FDED6960091919E70909F71980F31E36
:1005570080D9EF2468F8E604F8EF2F0490149793F6
:09056700F608EF2F93F67F002245
:10057000EFD3940240037FFF22EF232463F8E63099
:10058000E5F4C2AFE6548CF6D2AFE50CB5070A74B9
:10059000682FF8E6F5810203E6502E74692FF8E61D
:1005A000BF020274FFFD18E6F974682FF8FBE6FC41
:1005B000E96C6008A805E7F61D1980F4A803A605F4
:1005C0001FE50CB507E37F002274692FF8E6FD18DC
:1005D00086010F74682FF8A601088604E50CB5079C
:1005E00002AC81ED6C60080D09A805E6F780F4E522
:0905F0000CB507DE89817F0022B1
:0305F900AF0C2222
:1005FC00EF232463F8C2AFE64490F6D2AF0203B8FF
:10060C008FF0E4FFFEE50C232462F8C2A930F70D4D
:10061C007F08E6600B2DF660325030800730F10613
:10062C00EDF660277E020830F010C2AFE610E72529
:10063C000E30E20CD2AF7F048014C2AFE610E71587
:10064C0054EC4EF6D2AFD2A90203E67F0808EF4471
:0F065C0083F4C2AF56C6D2AFD2A954804FFF224B
:100C30000204AAE493A3F8E493A34003F68001F22C
:100C400008DFF48029E493A3F85407240CC8C333C5
:100C5000C4540F4420C8834004F456800146F6DF94
:100C6000E4800B0102040810204080901457E47EB9
:100C7000019360BCA3FF543F30E509541FFEE49389
:100C8000A360010ECF54C025E060A840B8E493A350
:100C9000FAE493A3F8E493A3C8C582C8CAC583CA7B
:100CA000F0A3C8C582C8CAC583CADFE9DEE780BE33
:011465000086
:10066B00BB010689828A83E0225002E722BBFE028D
:09067B00E32289828A83E49322C0
:1006840075F008758200EF2FFFEE33FECD33CDCC2D
:1006940033CCC58233C5829BED9AEC99E5829840B0
:1006A4000CF582EE9BFEED9AFDEC99FC0FD5F0D68D
:1006B400E4CEFBE4CDFAE4CCF9A88222B800C1B9B7
:1006C4000059BA002DEC8BF084CFCECDFCE5F0CBF5
:1006D400F97818EF2FFFEE33FEED33FDEC33FCEB2E
:1006E40033FB10D703994004EB99FB0FD8E5E4F9E9
:1006F400FA227818EF2FFFEE33FEED33FDEC33FCD6
:10070400C933C910D7059BE99A4007EC9BFCE99AC9
:10071400F90FD8E0E4C9FAE4CCFB2275F010EF2F0E
:10072400FFEE33FEED33FDCC33CCC833C810D7070E
:100734009BEC9AE899400AED9BFDEC9AFCE899F849
:0E0744000FD5F0DAE4CDFBE4CCFAE4C8F922DC
:10075200EB9FF5F0EA9E42F0E99D42F0E89C45F0FD
:010762002274
:10076300E8600FECC313FCED13FDEE13FEEF13FF74
:03077300D8F12298
:0C077600E6FC08E6FD08E6FE08E6FF22AF
:0D078200E6FB08E6F908E6FA08E6CBF822E7
:0C078F00ECF608EDF608EEF608EFF62296
:10079B00D083D082E493F608740193F60874029325
:0907AB00F608740393F67404735C
:10000E00E5312425F8E605312278223007027825DD
:10001E00E475F0011207F302066B2000EB7F2ED27F
:10002E00008018EF540F2490D43440D4FF30040BCA
:10003E00EF24BFB41A0050032461FFE532600215AD
:10004E00320535E5357002053430070D7822E4753A
:10005E00F0011207F3EF0207E10213357403D20722
:10006E008003E4C207F5318B228A238924E4F5321A
:10007E00F534F535E53260077F2012004980F575BD
:10008E0033FFC201C200C202C203C205C206C208C9
:10009E00120017FF700D3007057F0012005AAF35A2
:1000AE00AE3422B4255FC2D5C204120017FF24D08D
:1000BE00B40A00501A75F00A783230D50508B6FF2A
:1000CE000106C6A426F620D5047002D20380D924D8
:1000DE00CFB41A00EF5004C2E5D20402025AD20184
:1000EE0080C6D20080C0D20280BCD2D580BAD205E2
:1000FE0080B47F201200492002077401B5320040FF
:10010E00F112000EFF120049020082D208D20680C0
:10011E009512000EFB12000EFA12000EF94A4B70E9
:10012E0006792B7A037BFF20022EE532602A7E00B1
:10013E008E827583001207B460060EEE653370F082
:10014E00C2D5EBC0E0EAC0E0E9C0E0EE1202A1D0F9
:10015E00E0F9D0E0FAD0E0FB12066BFF60AAEBC02C
:10016E00E0EAC0E0E9C0E0120049D0E02401F9D095
:10017E00E03400FAD0E0FBE5330460DCD533D980FF
:10018E00877BFF7A02799DD202809C79108002795A
:10019E0008C206C2088008D2D5790A8004790AC23C
:1001AE00D5E533047002F533E4FAFDFEFF12000EBE
:1001BE00FC7B0820011312000EFD7B1030000A128A
:1001CE00000EFE12000EFF7B20EC3382D592D5502E
:1001DE0013C3E43000069FFFE49EFEE42001039D5E
:1001EE00FDE49CFCE4CBF8C201EC700CCFCECDCC80
:1001FE00E824F8F870F38017C3EF33FFEE33FEED0B
:10020E0033FDEC33FCEB33FB994002FB0FD8E9EBEB
:10021E00300105F8D0E0C448B201C0E00AEC4D4E02
:10022E004F78207B0070C2EAB5330040BCC0E012AC
:10023E0002A3D0F0D0E0200104C4C0E0C4B201C0DB
:10024E00F0120032D0F0D5F0EB020082120803015A
:10025E001F5301995800F04C00EC42019D4F01A52F
:0F026E004401A54901054301AB55018F46018F9E
:10027D0045018F47034B5000F42D00F82E011B2B29
:10028D0000FC2301192003342A00B4480000011397
:10029D003F3F3F00790AA2D5200314300509B9105C
:1002AD00020404B9080104A2D5200602500104205D
:1002BD0002689202B532005034C0E07F203003193D
:1002CD007F30A20272067205500F1202FAC202C2EC
:1002DD0006C205C2087F30800F300503E9C0E01269
:1002ED000049300503D0E0F9D0E0B532CC30051728
:1002FD007F30B9100C1200497F583004077F788089
:10030D0003B908031200493002057F2D0200497F11
:10031D00202008F87F2B2006F322920280CF286E32
:10032D00756C6C2900D20112000E3001F8C20178F3
:10033D003230D50108F60200B42D50434958120051
:10034D000E2403B405004001E49003469312003AD5
:0D035D00743A12003AD2037532040201997D
:1007B400BB010CE58229F582E5833AF583E02250FA
:1007C40006E92582F8E622BBFE06E92582F8E22244
:0D07D400E58229F582E5833AF583E493225E
:1007E100BB010689828A83F0225002F722BBFE01F7
:0207F100F322F1
:1007F300FAE6FB0808E6F925F0F618E6CA3AF62207
:10080300D083D082F8E4937012740193700DA3A384
:1008130093F8740193F5828883E473740293686098
:06082300EFA3A3A380DF98
:10133500EFB40A07740D121340740A309811A89976
:10134500B8130CC2983098FDA899C298B811F63018
:0713550099FDC299F59922F0
:00000001FF
